:020000040800F2
:1000000000400020F91F0008A51F0008AB1F0008D2
:1000100000000000000000000000000000000000E0
:10002000000000000000000000000000B11F0008F8
:100030000000000000000000BB1F0008C51F0008F2
:1000400049200008492000084920000849200008EC
:1000500049200008492000084920000849200008DC
:1000600049200008492000084920000849200008CC
:1000700049200008492000084920000849200008BC
:1000800049200008492000084920000849200008AC
:10009000D51F000849200008492000084920000811
:1000A000492000084920000849200008492000088C
:1000B000492000084920000849200008492000087C
:1000C00010B5064C2378002B07D1054B002B02D02E
:1000D000044800E000BF0123237010BD0C00002085
:1000E0000000000034420008044B10B5002B03D080
:1000F0000349044800E000BF10BDC04600000000F6
:100100001000002034420008002243088B4274D3C0
:1001100003098B425FD3030A8B4244D3030B8B4208
:1001200028D3030C8B420DD3FF22090212BA030C11
:100130008B4202D31212090265D0030B8B4219D3F2
:1001400000E0090AC30B8B4201D3CB03C01A524112
:10015000830B8B4201D38B03C01A5241430B8B425A
:1001600001D34B03C01A5241030B8B4201D30B0343
:10017000C01A5241C30A8B4201D3CB02C01A52416A
:10018000830A8B4201D38B02C01A5241430A8B422D
:1001900001D34B02C01A5241030A8B4201D30B0216
:1001A000C01A5241CDD2C3098B4201D3CB01C01A30
:1001B000524183098B4201D38B01C01A524143093A
:1001C0008B4201D34B01C01A524103098B4201D328
:1001D0000B01C01A5241C3088B4201D3CB00C01A95
:1001E000524183088B4201D38B00C01A524143080D
:1001F0008B4201D34B00C01A5241411A00D2014632
:10020000524110467047FFE701B5002000F006F8A4
:1002100002BDC0460029F7D076E770477047C04658
:1002200070B500220C4B04000D0001F0D9F9002834
:1002300004D12000290001F043F970BD064B0022D3
:100240002000290000F0BAFD01F03AF980231B06D6
:100250009C466044F1E7C0460000E041F0B55746D7
:100260004E464546DE46E0B50C031F004B00814676
:100270009246050085B0240B5B0DCE0F002B00D1FC
:1002800052E1D24A934200D16EE1420FE40014439E
:100290008022120422439046CD4AC50093469B44D7
:1002A0000023994600933C037B005046240B5B0DD2
:1002B000FF0F002B00D11AE1C44A934200D15EE146
:1002C000420FE4002243802424041443C04AC100A6
:1002D00094465A466344D31A9B46002033007B4021
:1002E0009A464B460F2B27D8BA4A9B00D3589F46B5
:1002F000B246009B022B16D0032B00D187E2012BC4
:1003000000D0D5E00023002200251B0513435246F0
:10031000D20713432800190005B0F0BCBB46B24613
:10032000A946A046F0BD00220025A84BEDE7BA463D
:10033000A0460D000090DCE7444500D2C4E100D1A6
:10034000BFE101235B429C462E0040460025E3446A
:1003500023020C0E1C431B0C994623040A021F0C9B
:10036000494600920197FFF755FF02007A430B04BC
:10037000310C804619438A4207D901235B429C46CF
:100380000919E0448C4200D801E2881A4946FFF777
:1003900041FF019A360442430904360C03000E4320
:1003A000B24204D93619013BB44200D8E9E1B01A8F
:1003B0004246009E12041A43330C1F00110C904653
:1003C000029313043204160C32001B0C5A4303969A
:1003D0007B434E437943170CBC469B1963449E42B2
:1003E00003D980267602B44661441E0C71181604A7
:1003F0001B04360C9E19884202D312D1B54210D28A
:1004000043465A1E009B9C4665441F009D429B41EB
:100410005B421B19C018844200D29EE100D199E1D1
:100420009046AE1BB542AD41401A6D42401B84421E
:1004300000D1D2E14946FFF7EDFE019A0B04424399
:10044000310C050019438A4200D96CE1881A4946EB
:10045000FFF7E0FE019A360442430904360C03001C
:100460000E43B24200D953E10398B61A02002D049C
:100470001D43029F2B041B0C5A437B439C46290CB3
:100480004843130C844463447943984203D9802041
:10049000400284466144180C12041B04120C4018DC
:1004A0009B18864200D200E100D1FBE001231D43EE
:1004B000494B5B44002B00DCAAE06A0700D03DE119
:1004C000E9084246D20106D54246444B1A408023F1
:1004D0009046DB005B44424A934200DD23E74246FC
:1004E0005B05550752020D43120B5B0D0DE751469C
:1004F000214300D17CE0002C00D1FBE0200001F082
:1005000079F802000B3A1D239B1A52460100DA408B
:10051000534608398B408C4019001443314B5844E2
:100520009B4683440020D9E603002343984644D0E9
:10053000002C00D1CFE0200001F05CF801000200A7
:100540000B391D235B1A49461000D94008388440F6
:100550000B004D46234398468540234B9B1A9B46F0
:100560000023994600939EE60200224390461DD147
:1005700008229B46022300259146009393E65146AC
:10058000214309D102234A461A43184B91469C46FF
:1005900000240220E344A1E603234A461A43134BF6
:1005A00091469C4651460320E34497E60C229B4625
:1005B0000323A0469146009375E604239946002341
:1005C0009B460133002500936DE6C046FF070000FF
:1005D00001FCFFFF4C420008FF030000FFFFFFFE8D
:1005E000FE070000F30300000DFCFFFF01F8FFFF12
:1005F0004A4601231A439146002401206EE6002357
:1006000080229A460025884B12037EE601256D4222
:100610000122D21A382A00DD74E61F2A00DCBDE070
:100620001F214942CB1A4146D9400B00202A04D051
:1006300041467E4A5A4491400D4329004A1E914149
:10064000194307231D0000220D400B4200D1D0E0CA
:100650000F2200230A40042A00D1C7E00A1D8A4263
:10066000894149425B1811001A0200D4BEE00123FF
:100670000022002549E6802243461203134208D097
:10068000144206D122431203BA460D00664B120BE8
:100690003BE68022434612031A431203B246624BE2
:1006A000120B32E6002B00D102E7A6196A1EA64201
:1006B00000D289E0864200D29FE000D1AFE0150071
:1006C000F4E6A94200D93CE64346DE0758086B0829
:1006D0001E43ED073CE600F08DFF010002001531DE
:1006E00020321C2900DC2CE74B46083883400025CB
:1006F000984632E700F07EFF03001A0015322030E2
:100700001C2A00DCFFE65446083B00219C4005E71C
:100710003619013BB44200D9A6E6B24200D8A3E69E
:10072000831E3619A0E60919013D8C4200D98DE6D9
:100730008A4200D88AE6851E091987E60F222A40D8
:10074000042A00D1BCE6291DA942AD416D42C90869
:10075000A844B6E6AF4200D962E6814204D800D090
:100760005EE6AE4200D85BE602235B429C46009BFD
:10077000E0449C4665449D429B415B421B19C01866
:100780004FE6B24200D812E6831E36190FE68A42BF
:1007900000D8FAE5831E98460919F6E5244B28008F
:1007A0005B4441469D409940D0406B1E9D4143466D
:1007B00001432943D3404A0700D155E70F220A409D
:1007C000042A00D04AE74FE71500864200D06DE6C4
:1007D000009A9A4200D069E66AE6164B5B44002B09
:1007E00000DC13E701250021A8446AE65D075B02EF
:1007F0001A0BC90800230D4387E50099023D4A0002
:100800008A42BF417F423F19F6190092DDE78022FC
:10081000434612031A431203034B120B75E500996A
:100820009942EAD31500D3E7FF0700003E04000019
:100830001E040000FF030000F0B54546DE465746A3
:100840004E46E0B51F000B031B0B9B464D00CB0F24
:1008500004009146984687B06D0D00D1CDE1CE4B96
:100860009D4200D1E9E15A46430FD2001343802252
:1008700012041A43C3009A46C84B93469C46002371
:100880000026654400933C037B004846240B5B0D27
:10089000FF0F002B00D189E1BF4A934219D0420FCC
:1008A000E4002243802424041443BC4A00219446DB
:1008B000424663445B190193019B7A400133C000B7
:1008C000D2B202930A2E1CDD3A000B2E5ED04746B0
:1008D00056E04946B04B2143EB18019300292AD139
:1008E0008020022200012B008446164342466344C6
:1008F0007A40D2B202930A2E00DD31E200200024B9
:100900000221022E26DC013E012E52D802294CD0B3
:10091000012900D018E10023002400251B052343F2
:10092000D20713432800190007B0F0BCBB46B246FB
:10093000A946A046F0BD8021032209012B008C4668
:100940001643424663447A40D2B202930A2E00DD37
:1009500028E203210125B540AC46A6266346F600F1
:10096000354033420BD19026B600334218D1B93E00
:10097000FF3E1E421DD0A3468246009100E01700B4
:1009800000993A00022910D05C4650460329BFD195
:1009900080231B031C43240305007F4B240BBDE76E
:1009A000802400227C4B2403B8E7002400257A4BE6
:1009B000B4E753461E04360C1F0C3300010C000430
:1009C000000C4343984603007B43994633004B4356
:1009D0009C4643460D001B0C9A467D43CC44D444B0
:1009E0000095E14504D980235B0299464D4400956A
:1009F00063461B0C1D0063461B049C4643461B04B8
:100A00001B0C9846634643440393230C98463300DB
:100A10002404240C63439C4623007B4399464346AD
:100A20005E435F434E446346B2461E0C5644B14596
:100A300003D980235B0299464F44330C99463B000F
:100A40004B4405936346AC461F043F0C3604F6192D
:100A5000B444634604935B461B0C9C465B461F04F0
:100A60003F0C3B0043439946634643439A464B46FB
:100A700060461B0C9B4648437943514459448A4580
:100A800003D980235B029A4650440B0C9A464B468E
:100A90001B041B0C99463B0063430904454649442B
:100AA000994663465C436B439C464B461B0C9846F9
:100AB0006F433F1947445044BC4203D980235B0233
:100AC0009846C444049B009D98464544B542B641AF
:100AD000734298464B461E04059B3C049946360CCF
:100AE000A4194C44A14683466E18C1448E428941E4
:100AF000CB445D4649426D189C42A441C1459B418F
:100B0000834580418D4289415B4264421C4340429F
:100B1000039B4942014370023F0C1843E419471EEE
:100B2000B84164186444F60D61023043EC0D6E0266
:100B30000C433043C90100D4F1E0012143080140D6
:100B40000B43E007184364081549029B8C46634435
:100B5000002B00DC97E0410709D00F210140042958
:100B600005D0011D81428041404224180800E10166
:100B700006D58021C9008C460A4B1C40029B634469
:100B800009498B4200DD10E76107C50864025B0577
:100B90000D43240B5B0DC1E6FF07000001FCFFFFC6
:100BA000FF030000FFFFFFFEFE0700004B4623434C
:100BB00059D0002C00D1A3E0200000F01BFD010063
:100BC00003000B391D22521A49461800D1404A46EB
:100BD00008388240844010000C43744AEB1A944653
:100BE000424663440193019B7A4001330021D2B213
:100BF00002930A2E00DD67E683E65B4603439A46CE
:100C00002AD05B46002B6DD0584600F0F3FC010063
:100C100003000B391D22521A210018005D46D140F5
:100C2000083885400A0084402A439346A2465F4D17
:100C30000026ED1A0023009325E65B4603439A46FF
:100C400005D100239B460233082600931BE60323AD
:100C500082460C26009316E600239B4601330426A9
:100C6000002500930FE64246013301951E43019B88
:100C70007A400133002400200121D2B202930A2ECF
:100C800000DD21E63DE60121C91A382900DD42E6F2
:100C90001F2947DD1F2625007642F31ADD402B0071
:100CA000202905D04249029D8C466544AC40204332
:100CB000411E8841184307231D00002405400342BC
:100CC0004AD00F2300240340042B42D0031D83424B
:100CD000804140422418180023023AD50123002401
:100CE00000251BE600F086FC0100030015312033CF
:100CF0001C298FDD0838002284409246A34696E7DF
:100D000000F078FC01000300153120331C2900DCC1
:100D100058E702004C46083A002094405DE7019BEA
:100D2000029311E7234B26009C460300029DCB4013
:100D30006544AE401E430300AB40581E8341300063
:100D40001843CC404307C7D00F230340042BBDD129
:100D5000C2E765076402240BC00800230543DDE5F4
:100D6000002502230F2E0CD180245B46240323424E
:100D70000ED021420CD10C4324033A000E4B240B1D
:100D8000CCE50B2E00D0A2E58B46AA460093F7E5F2
:100D900080245B4624031C43240342465546064BED
:100DA000240BBBE54D4621000323DBE70DFCFFFFD1
:100DB0003E0400001E040000FF070000F0B5574687
:100DC0004E464546DE46E0B50D0004001900100011
:100DD0002B035B0A620F1A43E3000C03640A470FFC
:100DE0002743D04C6E00914683B04A00C00098461D
:100DF000A246760DED0F520DC90F0190A24200D10F
:100E0000B9E0012461408B468D4200D18DE0B41AD7
:100E1000A446002C00DCB7E0002A00D1CBE0C14A98
:100E2000964200D186E18022120417436246382A96
:100E300000DDA4E11F2A00DD1DE2614620223C0006
:100E4000521A010090409440421E90416246A046D2
:100E50006446D7404A46E1404446D21B91460C4383
:100E600004431C1BA34292414B4652429B1A9A4692
:100E700053461B0200D42BE153465A02530A9A46AA
:100E80005346002B00D166E1504600F0B3FB03004F
:100E9000083B20222000D21A5146D040994002003F
:100EA0009C400A439E4200DD64E19B1B591C1F29A4
:100EB00000DDFEE02023100026005B1A9C409840D5
:100EC000CE40CA40631E9C413043924600260443F4
:100ED000630709D00F232340042B05D0231DA34211
:100EE000A4416442A2441C0053461B0200D4F2E019
:100EF0008C4B01369E4200D10FE153468A49E408EB
:100F00000B4019005B07234372054C02240B520D62
:100F100012052243ED072A431800110003B0F0BC6C
:100F2000BB46B246A946A046F0BDB41AA446002C62
:100F300059DD002A00D1B0E0564500D1FAE0802208
:100F4000120417436246382A00DDD4E01F2A00DC71
:100F5000C0E13900203AD1406246202A06D06446DA
:100F60004022121B3C00944004430194019C621EE9
:100F700094410C43C3E03C0004432BD08B468D428C
:100F80002ED06A4CA446B4446446002C5FD0941B17
:100F9000A446002E00D020E14C461C4300D1C7E1FE
:100FA00061464C1E012900D123E25E4DAC4500D1C3
:100FB000D8E1A4461AE13A00024300D1E4E022005D
:100FC000013A012C00D1C3E156498C4200D1B1E075
:100FD00094462BE7012461408B468D4200D016E7F2
:100FE00052498C46B4446446002C00D1D3E0911B96
:100FF0008C46002E00D15EE14A498A4200D1BEE112
:1010000080214C4609040C43A1466146382900DD85
:10101000BAE11F2900DD27E22024641A4946A140D5
:101020001E0088466146A340CE4041465C1EA34157
:10103000314319430C0063464946D9407F182418B0
:1010400084429B415B429A461600BA445DE0384CAC
:10105000721C224200D0DFE04A461A43002E00D024
:101060005CE1002A00D1CFE13A00024300D17FE1E8
:101070001C1A4A46A3428941D21B4942521A92463F
:10108000120200D40AE2C41AA04280414B464042F8
:10109000FF1A3B1A9A465D461AE73A00024373D09C
:1010A0002200013A012C00D1CBE0544542D09446B5
:1010B00048E710001F3BD840202903D040235B1A8B
:1010C0009A401443631E9C41002300269A46044321
:1010D000630700D0FEE65246E30852071343524628
:1010E000B446D2080F498C452AD01203140B62462D
:1010F0005205520D0CE73C000443621E9441E41873
:101100009C42924152424A44924653461B02DFD5CA
:10111000044B01369E4200D0A0E0320000240023A0
:10112000F6E6C046FF070000FFFF7FFF01F8FFFF64
:10113000FE070000DB084A46520713434A46D2081E
:101140001900114300D1B5E1802424031443240382
:10115000D54A240BDCE6200000F04CFA03001833DB
:101160001F2B00DC95E622000838824000249E42B6
:1011700000DC9AE6F61ACD4B1A409246A8E63C00EF
:101180000443621E94416CE64A46DB08520713434F
:101190004A46D208A6E7C64C721C224200D0ACE0F8
:1011A0004A461A43002E00D005E1002A00D156E13C
:1011B0003A00024300D1DBE01C189C429B414F44A3
:1011C000BA465B429A4453461B0200D480E752461B
:1011D000B64B01261A4092467AE7B34CA24200D1A0
:1011E000C0E080244D4624042543A9466446382C9B
:1011F00053DC61461F2C00DDCDE020251E002D1B99
:101200004C46AB40AC40CE405D1EAB413443234323
:101210004C46CC403F1B45E04A461C1AD11BA3421A
:101220009241524292460A005146521A9246120286
:1012300000D583E05346234300D021E60022002559
:1012400053E71C189C429B414F44BA465B429A4468
:10125000534601261B0200D43AE702265246934B1E
:1012600001211A401300214062080A43DC075B0891
:101270009A4614432CE63900203AD1406246202A8F
:1012800006D064464022121B3C0094400443019463
:10129000019C621E94410C43E3E5494619430B004F
:1012A0005C1EA341C41AA0429B415B42FB1A9A46B2
:1012B0005D461600DCE54946194300D1AEE06146C3
:1012C00064460139012C00D1E0E0774CA44556D0AA
:1012D0008C469AE6614620223C00521A9440010056
:1012E0009040A0466446421E90416246E14044461A
:1012F000D7400C430443B94401E76B498A4200D10B
:101300000CE7181898429B414F445B42FB18DC07DE
:1013100040085B089A4616000443D9E6002A00D02C
:1013200081E03B0003431DD18022002512030BE71F
:10133000C0087B075D460343FA08D3E6C41AA042FF
:1013400080414B464042FF1A3B1A9A465D4697E55C
:101350001C1A4A46A3429B41D71B5B42FB1A9A4682
:10136000012685E5C0087B075D460343FA08E7E6EA
:101370004A46DB08520713434A46D208B5E6C0087E
:101380007B070343FA08DBE6494619430B00591E65
:101390008B411C0053E64D46203CE540202905D0FA
:1013A0004024641A4946A1400B43984643465C1EBC
:1013B000A3412B4376E7002AE1D03A00DB08024341
:1013C00000D1B8E64A465207802413434A46240314
:1013D000D208224207D0FE08264204D15D463200E0
:1013E000C3087F073B43590FDB004907DB080B436A
:1013F000A6E6C41AA04280414B464042FF1A3B1A5F
:101400009A465D46012633E53B00034300D115E7CC
:10141000C0087B075D460343FA0866E6C0087B0701
:101420000343FA085EE63A00DB08024300D182E695
:101430004A465207802413434A462403D2082242D4
:1014400007D0FE08264204D15D463200C3087F075C
:101450003B43590FDB00DB0849070B4370E6C0082C
:101460007B070343FA0840E64C462039CC406146EE
:10147000202906D066464021891B4E468E403343C4
:1014800098464346591E8B411C43D8E51C1884429C
:1014900080414F44BA4640428244D9E653462343F2
:1014A00000D1CBE614E6C046FF070000FFFF7FFF38
:1014B000FE0700000023014A1C0029E5FF07000089
:1014C0000A0030B5134C530009030500090B002036
:1014D0005B0DD20FA34204DD0F48834202DD0F4BA8
:1014E000D01830BD8020400301430D48C01A1F288A
:1014F00008DD0C48C31AD9400B005842002AF0D12D
:101500001800EEE7084CC540A446634499400B0020
:101510002B43F2E7FE0300001D040000FFFFFF7FE6
:101520003304000013040000EDFBFFFF10B5041EA0
:1015300010D000F05FF80F4B1B1A0A2811DC0B22A9
:101540002100121AD14015300A035B058440120BAA
:101550005B0D01E0002300221B051343200019004E
:1015600010BD22000B3882405B0512030024120BD1
:101570005B0DF1E71E0400008446100062468C46B5
:101580001900634600E0C0461FB500F0F9F80028D6
:1015900001D40021C8421FBD10B500F049F84042F7
:1015A000013010BD10B500F0EBF8002801DB002081
:1015B00010BD012010BDC04610B500F0E1F80028B4
:1015C00001DD002010BD012010BDC04610B500F0A7
:1015D00071F8002801DC002010BD012010BDC046BC
:1015E00010B500F067F8002801DA002010BD0120D6
:1015F00010BDC0461C2101231B04984201D3000CDE
:1016000010391B0A984201D3000A08391B09984275
:1016100001D30009043902A2105C40187047C0468B
:1016200004030202010101010000000000000000AB
:10163000F0B54E464546DE4657469046E0B51700A3
:101640001A03120B0500844619480E034C009146FC
:101650005A00DB0F9B46360B640DC90F520D8442B6
:1016600019D0824210D0012094420ED14E450CD1A7
:101670000120C44509D1594517D0002C05D13000AF
:101680002843431E984100E00120F0BCBB46B2460F
:10169000A946A046F0BD330001202B43F5D1A2425C
:1016A000F3D14B463B43F0D1E2E70020EDE7C046E3
:1016B000FF070000F0B54746CE46040018001600AC
:1016C0001B031B0B2D4D4A00994680B543000F03A9
:1016D000A446B0463F0B520DC90F5B0DC00FAA4286
:1016E00021D0AB4213D0002A22D13C43002B02D19F
:1016F0004D462E4322D0002C10D0814222D0022011
:10170000013908400138C0BCB946B046F0BD4D466D
:101710002E4329D1002AF0D13C43EED10028F2D14A
:1017200001204042EFE73D0025431DD19342EED01A
:10173000002BE2D14C462643DFD1E0E70020002C0D
:10174000E1D0DCE79A420ADCE8DB4F45D7D80ED07F
:1017500000204F45D7D20029E2D00800D3E743420A
:10176000584140000138CEE702204042CBE7C44553
:10177000C5D80020C445C6D2EDE7C046FF0700002B
:10178000F0B54746CE460400180016001B031B0B9D
:101790002C4D4A00994680B543000F03A446B0463D
:1017A0003F0B520DC90F5B0DC00FAA420DD0AB42CB
:1017B00010D0002A27D13C43002B11D14D462E4397
:1017C0000ED10020002C15D00EE03D00254310D195
:1017D000934218D14D462E430BD1002A02D13C43EF
:1017E000002C0BD0814214D002200139084001386E
:1017F00000E00220C0BCB946B046F0BD0028F9D1D7
:1018000001204042F6E7002BECD14C462643E9D1BB
:10181000EAE79A4204DD4342584140000138E9E7D3
:101820009A42EBDB4F45DFD806D000204F45E1D28E
:101830000029E5D00800DDE7C445D5D80020C4451F
:10184000D8D2F5E7FF07000080B582B000AF78601E
:101850007B681B7F022B00D096E04D4B1B78002B42
:101860001BD17B680421180002F04CF80200494BA0
:101870001A60474B01221A707B681B681A6A7B68E2
:101880001B68A0218A431A627B681B681A6A7B68FE
:101890001B6820210A431A6276E03D4B1B78012B1E
:1018A00072D17B680421180002F02CF802003A4B38
:1018B0001A60394B1A68374B1B689A421FD9364B4E
:1018C0001A68344B1B68D31A1800FFF72FFE334AEF
:1018D000334BFEF7B1FF02000B001000190000228D
:1018E0008023DB05FEF7BAFC02000B001000190094
:1018F000FEF796FC03009AB22A4B1A8027E0254B8C
:101900001A68254B1B689A4221D9234B1A68214B30
:101910001B68D31A244A944663441800FFF706FE56
:101920001E4A1F4BFEF788FF02000B001000190033
:1019300000228023DB05FEF791FC02000B00100063
:101940001900FEF76DFC03009AB2164B1A80104B7B
:1019500000221A707B681B681A6A7B681B68A021CA
:101960008A431A627B681A687B681B68126A1A626B
:101970007B681B6800225A620C4B1B68DA680B4BB1
:101980001B6802218A43DA60C046BD4602B080BDB2
:10199000C2000020B8000020BC0000209CC420B081
:1019A0007268A13FC0000020FFFF0000700000200F
:1019B00080B500AF00F04AFB02F0C8FA02F086FBE7
:1019C00000F07AF800F098F900F0BEF800F014F991
:1019D0008023D9009023DB050022180000F014FEBC
:1019E000324B180001F050FB314B0421180001F07C
:1019F000EDFB2E4B1B681A682C4B1B6801210A4318
:101A00001A602B4B1B68DA68294B1B6802210A43BA
:101A1000DA60264B1B6800225A628023D90090238B
:101A2000DB050122180000F0EFFDC0461F4B1B68CC
:101A30005B6A092BFAD98023D9009023DB050022A9
:101A4000180000F0E1FD502000F064FB194B1B88EA
:101A50009BB2FA2B08D902F085FB02F01DFB02F0C5
:101A6000F4FA02F00CFBCCE7124B1B889BB2962BCE
:101A70000DD9104B1B889BB2F92B08D802F09AFBAA
:101A800002F0D6FA02F0FBFA02F013FB0CE0094B6D
:101A90001B889BB2952BB4D802F078FB02F0E2FAD7
:101AA00002F0D3FA02F005FBABE7C04628000020A5
:101AB00070000020C000002090B593B000AF142447
:101AC0003B19180034231A00002102F087FB3B1D4C
:101AD000180010231A00002102F080FB21007B185F
:101AE00001221A607B1801225A607B1802225A6276
:101AF0007B18802252029A627B18A0229203DA623B
:101B00007B1801221A637B18180000F09BFD031E4E
:101B100001D000F0B1F93B1D07221A603B1D0222E3
:101B20005A603B1D00229A603B1D0022DA603B1D7B
:101B30000121180001F00CF9031E01D000F09CF9FE
:101B4000C046BD4613B090BD80B586B000AF082337
:101B5000FB18180010231A00002102F03FFB3B0085
:101B6000180008231A00002102F038FB1F4B204AFE
:101B70001A601E4B2F225A601C4B00229A601B4B8E
:101B80001C4ADA60194B00221A61184B00225A6174
:101B9000164B00229A61154B180001F025FA031E1E
:101BA00001D000F069F908217B18802252011A60E7
:101BB0007A180E4B1100180001F0D0FD031E01D061
:101BC00000F05AF93B0000221A603B0000225A60E4
:101BD0003A00064B1100180002F04AF9031E01D02A
:101BE00000F04AF9C046BD4606B080BD280000207E
:101BF000002C0140FFFF000080B58AB000AF182321
:101C0000FB18180010231A00002102F0E7FA102335
:101C1000FB18180008231A00002102F0DFFA3B002D
:101C2000180010231A00002102F0D8FA2F4B304A76
:101C30001A602E4B2F225A602C4B00229A602B4B9D
:101C40002C4ADA60294B00221A61284B00225A6183
:101C5000264B00229A61254B180001F0C5F9031E9E
:101C600001D000F009F918217B18802252011A6076
:101C70007A181E4B1100180001F070FD031E01D0F0
:101C800000F0FAF8194B180001F048FA031E01D0D1
:101C900000F0F2F810217B1800221A607B18002255
:101CA0005A607A18114B1100180002F0E1F8031E77
:101CB00001D000F0E1F83B0000221A603B00012255
:101CC0005A603B0000229A603B000022DA60390033
:101CD000064B0422180001F09DFC031E01D000F009
:101CE000CBF8C046BD460AB080BDC046700000209B
:101CF00000400140FFFF000090B58BB000AF1424FE
:101D00003B19180014231A00002102F067FA574B00
:101D10005A69564B802109030A435A61534B5A6949
:101D200080231B0313403B613B69504B5A694F4B67
:101D30008021C9030A435A614C4B5A698023DB0353
:101D40001340FB60FB68494B5A69484B802189026C
:101D50000A435A61454B5A6980239B021340BB607A
:101D6000BB68424B5A69414B8021C9020A435A6100
:101D70003E4B5A698023DB0213407B607B688423DF
:101D8000D9009023DB050022180000F03DFC8023E1
:101D90001B0137480022190000F036FC3B19802255
:101DA00092011A603B19842292035A603B19002267
:101DB0009A603B192F4A1900100000F0ADFA3B1948
:101DC0000C221A603B1902225A603B1900229A60C9
:101DD0003B190022DA603B1901221A613A1990235B
:101DE000DB051100180000F097FA21007B1884220F
:101DF000D2001A600C003B1901225A603B190022E4
:101E00009A603B190022DA603A199023DB05110031
:101E1000180000F081FA21007B18802212011A605C
:101E20000C003B1901225A603B1900229A603B19B1
:101E30000022DA603B190E4A1900100000F06CFA1B
:101E400021007B18802252011A607B1800225A6000
:101E50007B1800229A607B18054A1900100000F0D8
:101E60005BFAC046BD460BB090BDC04600100240B4
:101E7000000400480008004880B500AF72B6C046B4
:101E8000FEE7000080B582B000AF0F4B9A690E4BA1
:101E900001210A439A610C4B9B69012213407B602C
:101EA0007B68094BDA69084B802149050A43DA61EE
:101EB000054BDA6980235B0513403B603B68C046F5
:101EC000BD4602B080BDC0460010024080B58AB059
:101ED00000AF78601423FB18180014231A000021A7
:101EE00002F07CF97B681B682A4A93420ED12A4B88
:101EF0009A69294B802109010A439A61264B9A6904
:101F000080231B0113403B613B693FE07B681B68FA
:101F1000224A93423AD1204B9A691F4B80214902B1
:101F20000A439A611C4B9A6980235B021340FB6051
:101F3000FB68194B5A69184B8021C9020A435A6140
:101F4000154B5A698023DB021340BB60BB68142128
:101F50007B18802212021A607B1802225A607B18BA
:101F600000229A607B180022DA607B1801221A6135
:101F70007B180B4A1900100000F0CEF90022002156
:101F8000142000F097F9142000F0A9F9C046BD46CE
:101F90000AB080BD002C014000100240004001400A
:101FA0000004004880B500AFFEE780B500AFFEE753
:101FB00080B500AFC046BD4680BD80B500AFC0460D
:101FC000BD4680BD80B500AF00F088F8C046BD4674
:101FD00080BD000080B500AF034B180001F004FA8B
:101FE000C046BD4680BDC0467000002080B500AF31
:101FF000C046BD4680BD00000D488546FFF7F6FF90
:102000000C480D490D4A002302E0D458C450043353
:10201000C4188C42F9D30A4A0A4C002301E0136029
:102020000432A242FBD302F0E1F8FFF7C1FCFEE765
:1020300000400020000000200C000020C4420008E6
:102040000C000020C8000020FEE7000080B500AFB3
:10205000074B1A68064B10210A431A60002000F053
:1020600009F8FFF70FFF00231800BD4680BDC046EA
:102070000020024090B583B000AF7860144B1C681C
:10208000144B1B781900FA239800FEF73DF8030063
:1020900019002000FEF738F80300180000F02FF9AF
:1020A000031E01D001230FE07B68032B0BD8796856
:1020B00001235B420022180000F0FCF8064B7A680E
:1020C0001A60002300E001231800BD4603B090BD54
:1020D00000000020080000200400002080B500AFB0
:1020E000054B1B781A00054B1B68D218034B1A606E
:1020F000C046BD4680BDC04608000020C400002088
:1021000080B500AF024B1B681800BD4680BDC046BD
:10211000C400002080B584B000AF7860FFF7F0FF06
:102120000300BB607B68FB60FB68013305D00A4B92
:102130001B781A00FB689B18FB60C046FFF7E0FFA6
:102140000200BB68D31AFA689A42F7D8C046C04664
:10215000BD4604B080BDC0460800002080B582B0F6
:1021600000AF0200FB1D1A70FB1D1B787F2B09D8E6
:10217000FB1D1B781A001F231A40044B01219140BC
:102180000A001A60C046BD4602B080BD00E100E012
:1021900090B583B000AF02003960FB1D1A70FB1DC3
:1021A0001B787F2B28D82F4AFB1D1B785BB29B081E
:1021B000C0339B009B58FA1D1278110003220A407D
:1021C000D200FF2191400A00D2431A4011003B681F
:1021D0009B01FF221A40FB1D1B78180003230340BC
:1021E000DB009A401F48FB1D1B785BB29B080A432B
:1021F000C0339B001A5031E01B4AFB1D1B781900AD
:102200000F230B40083B9B0806339B00D318043375
:102210001B68FA1D1278110003220A40D200FF2128
:1022200091400A00D2431A4011003B689B01FF22F3
:102230001A40FB1D1B78180003230340DB009A4063
:102240000948FB1D1B781C000F232340083B9B08FB
:102250000A4306339B00C31804331A60C046BD46C8
:1022600003B090BD00E100E000ED00E080B582B079
:1022700000AF78607B685A1E80235B049A4201D3CA
:10228000012310E00A4B7A68013A5A6001235B424D
:1022900003211800FFF77CFF054B00229A60044BD6
:1022A00007221A6000231800BD4602B080BDC04658
:1022B00010E000E080B584B000AFB9607A600F2113
:1022C0007B18021C1A70BA687B181B785BB211006D
:1022D0001800FFF75DFFC046BD4604B080BD80B565
:1022E00082B000AF0200FB1D1A70FB1D1B785BB2B1
:1022F0001800FFF733FFC046BD4602B080BD80B571
:1023000082B000AF78607B681800FFF7AFFF030072
:102310001800BD4602B080BD80B586B000AF7860C1
:10232000396000237B6155E13B681B6801217A69B4
:1023300091400A001340FB60FB68002B00D146E18E
:102340003B685B6803221340012B05D03B685B6848
:1023500003221340022B30D17B689B683B617B6971
:102360005B0003229A401300DA433B6913403B6150
:102370003B68DA687B695B009A4013003A69134353
:102380003B617B683A699A607B685B683B610122CC
:102390007B699A401300DA433B6913403B613B6819
:1023A0005B681B0901221A407B699A4013003A6955
:1023B00013433B617B683A695A603B685B68032260
:1023C0001340032B17D07B68DB683B617B695B00A4
:1023D00003229A401300DA433B6913403B613B6898
:1023E0009A687B695B009A4013003A6913433B612A
:1023F0007B683A69DA603B685B6803221340022B12
:1024000023D17B69DA087B6808329200D3583B619C
:102410007B69072213409B000F229A401300DA4386
:102420003B6913403B613B681A697B6907210B409C
:102430009B009A4013003A6913433B617B69DA08B9
:102440007B68083292003969D1507B681B683B6118
:102450007B695B0003229A401300DA433B69134017
:102460003B613B685B6803221A407B695B009A40D2
:1024700013003A6913433B617B683A691A603B6811
:102480005A68C0239B02134000D1A0E0574B9A69C1
:10249000564B01210A439A61544B9B690122134018
:1024A000BB60BB68524A7B699B0802339B009B5808
:1024B0003B617B69032213409B000F229A4013006B
:1024C000DA433B6913403B617A689023DB059A420B
:1024D00019D07B68474A934213D07B68464A93429F
:1024E0000DD07B68454A934207D07B68444A9342AB
:1024F00001D1042308E0052306E0032304E00223BE
:1025000002E0012300E000237A6903210A409200DF
:1025100093403A6913433B6135497B699B08023319
:102520009B003A695A50374B9B683B61FB68DA4322
:102530003B6913403B613B685A6880235B0313404F
:1025400003D03A69FB6813433B612E4B3A699A60AA
:102550002C4BDB683B61FB68DA433B6913403B6112
:102560003B685A6880239B03134003D03A69FB6899
:1025700013433B61234B3A69DA60224B5B683B6152
:10258000FB68DA433B6913403B613B685A68802330
:102590009B02134003D03A69FB6813433B61194B1C
:1025A0003A695A60174B1B683B61FB68DA433B6929
:1025B00013403B613B685A6880235B02134003D0A1
:1025C0003A69FB6813433B610E4B3A691A607B69B9
:1025D00001337B613B681A687B69DA40131E00D0C7
:1025E000A2E6C046C046BD4606B080BD001002400F
:1025F000000001400004004800080048000C0048AA
:10260000001000480004014080B582B000AF78603F
:1026100008001100BB1C021C1A807B1C0A1C1A70CB
:102620007B1C1B78002B04D0BB1C1A887B689A612A
:1026300003E0BB1C1A887B689A62C046BD4602B0A4
:1026400080BD000080B588B000AF78607B68002B4B
:1026500002D1012300F076FB7B681B680122134046
:1026600000D18EE0C54B5B680C221340042B0ED0CA
:10267000C24B5B680C221340082B17D1BF4B5A6822
:10268000C0235B021A4080235B029A420ED1BB4BEF
:102690001A6880239B02134000D171E07B685B685D
:1026A000002B00D06CE0012300F04CFB7B685B68E2
:1026B000012B07D1B14B1A68B04B802149020A4364
:1026C0001A602FE07B685B68002B0CD1AB4B1A685B
:1026D000AA4BAB490A401A60A84B1A68A74BA949F4
:1026E0000A401A601EE07B685B68052B0ED1A34B85
:1026F0001A68A24B8021C9020A431A609F4B1A68CC
:102700009E4B802149020A431A600BE09B4B1A68DA
:102710009A4B9B490A401A60984B1A68974B994903
:102720000A401A607B685B68002B14D0FFF7E8FC56
:102730000300BB6108E0FFF7E3FC0200BB69D31AAA
:10274000642B01D90323FDE28C4B1A6880239B0282
:102750001340F0D015E0FFF7D3FC0300BB6108E0A5
:10276000FFF7CEFC0200BB69D31A642B01D9032307
:10277000E8E2824B1A6880239B021340F0D100E00C
:10278000C0467B681B680222134000D16CE07B4B83
:102790005B680C2213400ED0784B5B680C22134010
:1027A000082B1FD1754B5A68C0235B021A40802347
:1027B0001B029A4216D1714B1B680222134005D0AE
:1027C0007B68DB68012B01D00123BBE26B4B1B68EC
:1027D000F822934319007B681B69DA00674B0A43B0
:1027E0001A6041E07B68DB68002B24D0634B1A68D9
:1027F000624B01210A431A60FFF782FC0300BB61B0
:1028000008E0FFF77DFC0200BB69D31A022B01D957
:10281000032397E2594B1B6802221340F1D0574B18
:102820001B68F822934319007B681B69DA00534B3D
:102830000A431A6018E0514B1A68504B01218A4331
:102840001A60FFF75DFC0300BB6108E0FFF758FC6E
:102850000200BB69D31A022B01D9032372E2474B52
:102860001B6802221340F1D17B681B6808221340C9
:1028700036D07B68DB69002B19D0404B5A6A3F4B3E
:1028800001210A435A62FFF73BFC0300BB6108E0E9
:10289000FFF736FC0200BB69D31A022B01D90323D0
:1028A00050E2364B5B6A02221340F1D018E0334B02
:1028B0005A6A324B01218A435A62FFF721FC030016
:1028C000BB6108E0FFF71CFC0200BB69D31A022BB6
:1028D00001D9032336E2294B5B6A02221340F1D16E
:1028E0007B681B680422134000D1B5E01F203B1811
:1028F00000221A70214BDA6980235B05134010D146
:102900001E4BDA691D4B802149050A43DA611B4BD6
:10291000DA6980235B051340FB60FB683B180122EA
:102920001A70194B1A6880235B0013401AD1164B9A
:102930001A68154B802149000A431A60FFF7E0FB33
:102940000300BB6108E0FFF7DBFB0200BB69D31AA1
:10295000642B01D90323F5E10B4B1A6880235B003C
:102960001340F0D07B689B68012B0FD1034B1A6A90
:10297000024B01210A431A6236E0C04600100240B1
:10298000FFFFFEFFFFFFFBFF007000407B689B68BE
:10299000002B0CD1CA4B1A6AC94B01218A431A6217
:1029A000C74B1A6AC64B04218A431A621CE07B6833
:1029B0009B68052B0CD1C24B1A6AC14B04210A43F8
:1029C0001A62BF4B1A6ABE4B01210A431A620BE01E
:1029D000BB4B1A6ABA4B01218A431A62B84B1A6A76
:1029E000B74B04218A431A627B689B68002B14D082
:1029F000FFF786FB0300BB6109E0FFF781FB0200E4
:102A0000BB69D31AAF4A934201D903239AE1AC4B75
:102A10001B6A02221340F0D013E0FFF771FB0300A2
:102A2000BB6109E0FFF76CFB0200BB69D31AA54A42
:102A3000934201D9032385E1A14B1B6A0222134073
:102A4000F0D11F23FB181B78012B05D19C4BDA69B1
:102A50009B4B9D490A40DA617B681B68102213403A
:102A600063D07B685B69012B2AD1954B5A6B944BE1
:102A700004210A435A63924B5A6B914B01210A433A
:102A80005A63FFF73DFB0300BB6108E0FFF738FB2B
:102A90000200BB69D31A022B01D9032352E1884BF0
:102AA0005B6B02221340F1D0854B5B6BF8229343A2
:102AB00019007B689B69DA00814B0A435A6334E052
:102AC0007B685B69053311D17D4B5A6B7C4B0421CC
:102AD0008A435A637A4B5B6BF822934319007B68F5
:102AE0009B69DA00764B0A435A631EE0744B5A6BBB
:102AF000734B04210A435A63714B5A6B704B01218B
:102B00008A435A63FFF7FCFA0300BB6108E0FFF752
:102B1000F7FA0200BB69D31A022B01D9032311E192
:102B2000674B5B6B02221340F1D17B681B6820224C
:102B300013405CD0624B5B680C2213400C2B0ED010
:102B40005F4B5B680C221340082B14D15C4B5A6816
:102B5000C0235B021A40C0235B029A420BD1584B40
:102B60005A6B80239B02134040D07B681B6A012B69
:102B70003CD00123E6E07B681B6A002B1BD0504B46
:102B80005A6B4F4B802149020A435A63FFF7B8FA48
:102B90000300BB6108E0FFF7B3FA0200BB69D31A78
:102BA000022B01D90323CDE0454B5A6B80239B02B6
:102BB0001340F0D01BE0424B5A6B414B43490A4053
:102BC0005A63FFF79DFA0300BB6108E0FFF798FA2C
:102BD0000200BB69D31A022B01D90323B2E0384BA0
:102BE0005A6B80239B021340F0D100E0C0467B6803
:102BF0005B6A002B00D1A4E0314B5B680C221340D0
:102C0000082B00D178E07B685B6A022B4CD12C4BFF
:102C10001A682B4B2E490A401A60FFF771FA03001D
:102C2000BB6108E0FFF76CFA0200BB69D31A022B04
:102C300001D9032386E0224B1A6880239B041340AA
:102C4000F0D11F4BDB6A0F22934319007B681A6B8C
:102C50001B4B0A43DA621A4B5B681E4A1340190089
:102C60007B68DA6A7B689B6A1A43154B0A435A6091
:102C7000134B1A68124B802149040A431A60FFF76C
:102C80003FFA0300BB6108E0FFF73AFA0200BB69B4
:102C9000D31A022B01D9032354E0094B1A6880236D
:102CA0009B041340F0D04CE0054B1A68044B0849D4
:102CB0000A401A60FFF724FA0300BB6115E0C04622
:102CC0000010024088130000FFFFFFEFFFFFFEFF30
:102CD000FFFFFFFEFF7FC2FFFFF712FA0200BB6992
:102CE000D31A022B01D903232CE0184B1A68802336
:102CF0009B041340F0D124E07B685B6A012B01D177
:102D000001231FE0114B5B687B61104BDB6A3B6169
:102D10007A69C0235B021A407B689B6A9A420ED193
:102D20003B690F221A407B681B6B9A4207D17A6974
:102D3000F0239B031A407B68DB6A9A4201D001238F
:102D400000E000231800BD4608B080BD001002401E
:102D500080B584B000AF786039607B68002B01D10A
:102D60000123BFE0614B1B68012213403A689A427D
:102D700011D95E4B1B680122934319005B4B3A68E3
:102D80000A431A60594B1B68012213403A689A4261
:102D900001D00123A6E07B681B680222134015D0F6
:102DA0007B681B680422134006D0514B5A68504B75
:102DB000E021C9000A435A604D4B5B68F0229343FF
:102DC00019007B689A684A4B0A435A607B681B6803
:102DD000012213404CD07B685B68012B07D1444B28
:102DE0001A6880239B02134020D101237AE07B687C
:102DF0005B68022B07D13E4B1A6880239B0413406B
:102E000014D101236EE07B685B68032B07D1384B3C
:102E10005A6B80239B02134008D1012362E0344B9C
:102E20001B680222134001D101235BE0304B5B6839
:102E30000322934319007B685A682D4B0A435A605A
:102E4000FFF75EF90300FB6009E0FFF759F90200A4
:102E5000FB68D31A274A934201D9032342E0244B4B
:102E60005B680C221A407B685B689B009A42ECD13D
:102E70001E4B1B68012213403A689A4211D21B4B29
:102E80001B68012293431900184B3A680A431A60E1
:102E9000164B1B68012213403A689A4201D0012365
:102EA00020E07B681B680422134009D0104B5B684C
:102EB000114A134019007B68DA680D4B0A435A60C7
:102EC00000F020F801000A4B5B681B090F22134039
:102ED0000A4AD35C0A00DA40094B1A600020FFF767
:102EE000C9F800231800BD4604B080BD0020024090
:102EF0000010024088130000FFF8FFFF8C4200081A
:102F00000000002080B586B000AF0023FB600023E6
:102F1000BB6000237B6100237B6000233B612D4B62
:102F20005B68FB60FB680C2213400C2B46D048D832
:102F3000042B02D0082B03D043E0274B3B6143E036
:102F4000FB689B0C0F221340244AD35C7B60214B0F
:102F5000DB6A0F221340224AD35CBB60FA68C023AD
:102F60005B021A4080235B029A4209D1B9681A4871
:102F7000FDF7CAF803001A007B6853437B611AE02F
:102F8000FA68C0235B021A40C0235B029A4209D14F
:102F9000B9681448FDF7B8F803001A007B6853437A
:102FA0007B6108E0B9680C48FDF7AEF803001A0031
:102FB0007B6853437B617B693B6105E0094B3B6167
:102FC00002E0054B3B61C0463B691800BD4606B0B8
:102FD00080BDC0460010024000127A009C420008EA
:102FE000AC420008006CDC0280B582B000AF7860B3
:102FF0007B68002B01D1012342E07B683D229B5C72
:10300000DBB2002B07D17B683C22002199547B68FE
:103010001800FEF75BFF7B683D22022199547B6814
:103020001A687B6804331900100000F0BFFC7B684D
:103030004622012199547B683E22012199547B68E4
:103040003F22012199547B684022012199547B68D9
:103050004122012199547B684222012199547B68C5
:103060004322012199547B684422012199547B68B1
:103070004522012199547B683D2201219954002366
:103080001800BD4602B080BD80B584B000AF786046
:103090007B683D229B5CDBB2012B01D0012333E036
:1030A0007B683D22022199547B681B68184A934231
:1030B0000FD07B681A688023DB059A4209D07B68B1
:1030C0001B68144A934204D07B681B68124A9342DF
:1030D00011D17B681B689B6807221340FB60FB686B
:1030E000062B10D07B681B681A687B681B6801215F
:1030F0000A431A6007E07B681B681A687B681B68D4
:1031000001210A431A6000231800BD4604B080BDA7
:10311000002C0140000400400040014080B582B016
:1031200000AF78607B68002B01D1012342E07B680F
:103130003D229B5CDBB2002B07D17B683C22002147
:1031400099547B68180000F039F87B683D22022111
:1031500099547B681A687B6804331900100000F0EA
:1031600025FC7B684622012199547B683E2201217F
:1031700099547B683F22012199547B6840220121A8
:1031800099547B684122012199547B684222012194
:1031900099547B684322012199547B684422012180
:1031A00099547B684522012199547B683D22012175
:1031B000995400231800BD4602B080BD80B582B08E
:1031C00000AF7860C046BD4602B080BD80B584B017
:1031D00000AF786039600F23FB1800221A703B683B
:1031E000002B04D17B683E229B5CDBB213E03B6882
:1031F000042B04D17B683F229B5CDBB20BE03B6875
:10320000082B04D17B6840229B5CDBB203E07B6827
:1032100041229B5CDBB20E22BA1813703B68002B74
:1032200004D17B6842229B5CDBB213E03B68042B39
:1032300004D17B6843229B5CDBB20BE03B68082B2C
:1032400004D17B6844229B5CDBB203E07B684522AF
:103250009B5CDBB20D217A1813700E23FB181B78D0
:10326000012B03D17B181B78012B01D00123B1E086
:103270003B68002B04D17B683E220221995413E065
:103280003B68042B04D17B683F22022199540BE058
:103290003B68082B04D17B6840220221995403E04B
:1032A0007B684122022199543B68002B04D17B6842
:1032B00042220221995413E03B68042B04D17B681D
:1032C0004322022199540BE03B68082B04D17B6810
:1032D00044220221995403E07B684522022199543B
:1032E0003B680C2B2AD03B680C2B30D83B68082B52
:1032F0001BD03B68082B2AD83B68002B03D03B68C7
:10330000042B09D023E07B681B68DA687B681B68A4
:1033100002210A43DA601FE07B681B68DA687B6879
:103320001B6804210A43DA6016E07B681B68DA68D0
:103330007B681B6808210A43DA600DE07B681B6824
:10334000DA687B681B6810210A43DA6004E00F2307
:10335000FB1801221A70C0460F23FB181B78002BA4
:1033600035D17B681B6839680122180000F05CFDCC
:103370007B681B68194A93420FD07B681A688023C8
:10338000DB059A4209D07B681B68154A934204D03A
:103390007B681B68134A934211D17B681B689B684A
:1033A00007221340BB60BB68062B10D07B681B68EC
:1033B0001A687B681B6801210A431A6007E07B6872
:1033C0001B681A687B681B6801210A431A600F2377
:1033D000FB181B781800BD4604B080BD002C0140CE
:1033E000000400400040014080B582B000AF78602A
:1033F0007B681B681B6902221340022B24D17B6867
:103400001B68DB6802221340022B1DD17B681B68FE
:10341000032252421A617B6801221A777B681B687B
:103420009B690322134004D07B681800FEF70CFA56
:1034300007E07B68180000F0A1FA7B68180000F034
:10344000A5FA7B6800221A777B681B681B69042237
:103450001340042B25D17B681B68DB6804221340D2
:10346000042B1ED17B681B68052252421A617B68BF
:1034700002221A777B681B689A69C0239B0013405D
:1034800004D07B681800FEF7DFF907E07B681800BE
:1034900000F074FA7B68180000F078FA7B6800226C
:1034A0001A777B681B681B6908221340082B24D1FC
:1034B0007B681B68DB6808221340082B1DD17B68E2
:1034C0001B68092252421A617B6804221A777B68C2
:1034D0001B68DB690322134004D07B681800FEF7E9
:1034E000B3F907E07B68180000F048FA7B68180021
:1034F00000F04CFA7B6800221A777B681B681B6916
:1035000010221340102B25D17B681B68DB6810222A
:103510001340102B1ED17B681B68112252421A6186
:103520007B6808221A777B681B68DA69C0239B00D6
:10353000134004D07B681800FEF786F907E07B682B
:10354000180000F01BFA7B68180000F01FFA7B6877
:1035500000221A777B681B681B6901221340012B2C
:103560000FD17B681B68DB6801221340012B08D157
:103570007B681B68022252421A617B68180000F0C7
:10358000F5F97B681B681B6980221340802B0FD1E3
:103590007B681B68DB6880221340802B08D17B6826
:1035A0001B68812252421A617B68180000F0C6FC39
:1035B0007B681B681B6940221340402B0FD17B683E
:1035C0001B68DB6840221340402B08D17B681B68D6
:1035D000412252421A617B68180000F0DFF97B68D3
:1035E0001B681B6920221340202B0FD17B681B68AE
:1035F000DB6820221340202B08D17B681B68212226
:1036000052421A617B68180000F090FCC046BD462B
:1036100002B080BD80B586B000AFF860B9607A6056
:103620001723FB1800221A70FB683C229B5C012BBD
:1036300001D102238CE0FB683C22012199547B6874
:10364000002B1BD1FB681868BB681968BB685A68F7
:10365000BB68DB6800F02AFAFB681B689A69FB68A4
:103660001B680C218A439A61FB681B689969BB68D7
:103670009A68FB681B680A439A6162E07B68042BC6
:103680001CD1FB681868BB681968BB685A68BB68BE
:10369000DB6800F095FAFB681B689A69FB681B6899
:1036A0002D490A409A61FB681B689969BB689B6851
:1036B0001A02FB681B680A439A6142E07B68082B88
:1036C0001BD1FB681868BB681968BB685A68BB687F
:1036D000DB6800F0E9FAFB681B68DA69FB681B68C5
:1036E0000C218A43DA61FB681B68D969BB689A6858
:1036F000FB681B680A43DA6123E07B680C2B1CD152
:10370000FB681868BB681968BB685A68BB68DB68E7
:1037100000F00AFBFB681B68DA69FB681B680E494E
:103720000A40DA61FB681B68D969BB689B681A02AA
:10373000FB681B680A43DA6103E01723FB180122C8
:103740001A70FB683C22002199541723FB181B7840
:103750001800BD4606B080BDFFF3FFFF80B584B002
:1037600000AF786039600F23FB1800221A707B6865
:103770003C229B5C012B01D10223BCE07B683C22F4
:10378000012199547B683D22022199547B681B6872
:103790009B68BB60BB6877229343BB60BB68584A99
:1037A0001340BB607B681B68BA689A603B681B6803
:1037B00080229201934240D080229201934200D90C
:1037C00088E080225201934200D188E08022520199
:1037D000934200D97EE0702B18D000D97AE0602B9C
:1037E0004FD000D976E0502B3BD000D972E0402B6F
:1037F00057D000D96EE0302B63D06BD8202B60D02F
:1038000068D8002B5DD0102B5BD063E07B68186814
:103810003B6899683B685A683B68DB6800F0E4FAEB
:103820007B681B689B68BB60BB6877221343BB60E7
:103830007B681B68BA689A6052E07B6818683B68CE
:1038400099683B685A683B68DB6800F0CDFA7B6892
:103850001B689A687B681B688021C9010A439A60CB
:103860003EE07B6818683B6859683B68DB681A0073
:1038700000F078F97B681B685021180000F09AFA74
:103880002EE07B6818683B6859683B68DB681A0063
:1038900000F0D8F97B681B686021180000F08AFAF4
:1038A0001EE07B6818683B6859683B68DB681A0053
:1038B00000F058F97B681B684021180000F07AFA84
:1038C0000EE07B681A683B681B681900100000F066
:1038D00071FA05E00F23FB1801221A7000E0C046C0
:1038E0007B683D22012199547B683C220021995438
:1038F0000F23FB181B781800BD4604B080BDC046DE
:10390000FF00FFFF80B584B000AF7860396000230E
:10391000FB603B680C2B1ED03B680C2B20D83B680F
:10392000082B13D03B68082B1AD83B68002B03D018
:103930003B68042B05D013E07B681B685B6BFB6066
:103940000FE07B681B689B6BFB600AE07B681B6871
:10395000DB6BFB6005E07B681B681B6CFB6000E0B9
:10396000C046FB681800BD4604B080BD80B582B07B
:1039700000AF7860C046BD4602B080BD80B582B061
:1039800000AF7860C046BD4602B080BD80B582B051
:1039900000AF7860C046BD4602B080BD80B582B041
:1039A00000AF7860C046BD4602B080BD80B584B02F
:1039B00000AF786039607B681B68FB607B68344AC5
:1039C000934208D07A688023DB059A4203D07B6853
:1039D000304A934208D1FB6870229343FB603B68F6
:1039E0005B68FA681343FB607B68294A934218D0EE
:1039F0007A688023DB059A4213D07B68254A93427C
:103A00000FD07B68244A93420BD07B68234A9342B1
:103A100007D07B68224A934203D07B68214A9342B5
:103A200008D1FB68204A1340FB603B68DB68FA68FA
:103A30001343FB60FB68802293431A003B685B6979
:103A40001343FB607B68FA681A603B689A687B687E
:103A5000DA623B681A687B689A627B680C4A934218
:103A60000BD07B680D4A934207D07B680C4A934287
:103A700003D07B680B4A934203D13B681A697B6889
:103A80001A637B6801225A61C046BD4604B080BDFE
:103A9000002C014000040040002000400040014094
:103AA0000044014000480140FFFCFFFF80B586B0A4
:103AB00000AFF860B9607A603B60FB681B6A012266
:103AC00093431A00FB681A62FB689B697B61FB6881
:103AD0001B6A3B61FB68204A93420CD0FA68802342
:103AE000DB059A4207D0FB681C4A934203D0FB686F
:103AF0001B4A934201D1012300E00023002B08D090
:103B00007B69032293437B617A697B6813437B6102
:103B100003E07B69012213437B617B69F0229343BD
:103B20007B613B681B01FF2213407A6913437B6171
:103B30003B690A2293433B61BB680A2213403A69FE
:103B400013433B61FB687A699A61FB683A691A62C0
:103B5000C046BD4606B080BD002C014000040040B8
:103B60000040014080B586B000AFF860B9607A606F
:103B7000FB681B6A7B61FB681B6A012293431A0086
:103B8000FB681A62FB689B693B613B69F0229343C7
:103B90003B617B681B013A6913433B617B690A22E5
:103BA00093437B617A69BB6813437B61FB683A6925
:103BB0009A61FB687A691A62C046BD4606B080BD4C
:103BC00080B586B000AFF860B9607A603B60FB6892
:103BD0001B6A102293431A00FB681A62FB689B69F8
:103BE0007B61FB681B6A3B617B69144A13407B6104
:103BF0007B681B027A6913437B617B69104A13401F
:103C00007B613B681B031B041B0C7A6913437B61BC
:103C10003B69A02293433B61BB681B01A022134078
:103C20003A6913433B61FB687A699A61FB683A69B8
:103C30001A62C046BD4606B080BDC046FFFCFFFF0D
:103C4000FF0FFFFF80B586B000AFF860B9607A6003
:103C5000FB681B6A102293431A00FB681A62FB6818
:103C60009B697B61FB681B6A3B617B690D4A134062
:103C70007B617B681B037A6913437B613B69A022EC
:103C800093433B61BB681B013A6913433B61FB688B
:103C90007A699A61FB683A691A62C046BD4606B005
:103CA00080BDC046FF0FFFFF80B586B000AFF86053
:103CB000B9607A603B60FB681B6A194A1A40FB686E
:103CC0001A62FB68DB697B61FB681B6A3B617B698D
:103CD000032293437B617A697B6813437B617B6931
:103CE000F02293437B613B681B01FF2213407A69FA
:103CF00013437B613B690B4A13403B61BB681A026B
:103D0000A0231B0113403A6913433B61FB687A69A6
:103D1000DA61FB683A691A62C046BD4606B080BDEA
:103D2000FFFEFFFFFFF5FFFF80B586B000AFF86034
:103D3000B9607A603B60FB681B6A1A4A1A40FB68EC
:103D40001A62FB68DB697B61FB681B6A3B617B690C
:103D5000154A13407B617B681B027A6913437B61C0
:103D60007B69124A13407B613B681B031B041B0CDD
:103D70007A6913437B613B690D4A13403B61BB6821
:103D80001A03A0231B0213403A6913433B61FB68EB
:103D90007A69DA61FB683A691A62C046BD4606B0C4
:103DA00080BDC046FFEFFFFFFFFCFFFFFF0FFFFFDF
:103DB000FF5FFFFF80B584B000AF786039607B683B
:103DC0009B68FB60FB6870229343FB603A68FB686A
:103DD000134307221343FB607B68FA689A60C0466E
:103DE000BD4604B080BD000080B586B000AFF8606D
:103DF000B9607A603B60FB689B687B617B69094ABC
:103E000013407B613B681A027B681A43BB6813430B
:103E10007A6913437B61FB687A699A60C046BD4644
:103E200006B080BDFF00FFFF80B586B000AFF86030
:103E3000B9607A60BB681F22134001229A401300C8
:103E40007B61FB681B6A7A69D2431A40FB681A627D
:103E5000FB681A6ABB681F210B40796899400B0008
:103E60001A43FB681A62C046BD4606B080BD00001A
:103E700080B584B000AF786039607B683C229B5C81
:103E8000012B01D1022347E07B683C220121995498
:103E90007B683D22022199547B681B685B68FB604C
:103EA0007B681B689B68BB60FB6870229343FB6068
:103EB0003B681B68FA681343FB607B681B68FA6801
:103EC0005A607B681B68164A93420FD07B681A6859
:103ED0008023DB059A4209D07B681B68114A934214
:103EE00004D07B681B68104A93420CD1BB688022C7
:103EF0009343BB603B685B68BA681343BB607B68F5
:103F00001B68BA689A607B683D22012199547B68DE
:103F10003C220021995400231800BD4604B080BD06
:103F2000002C0140000400400040014080B582B0F8
:103F300000AF7860C046BD4602B080BD80B582B09B
:103F400000AF7860C046BD4602B080BD80B500AF0E
:103F5000354B5A69344B802189020A435A619023B8
:103F6000DB051A689023DB0501210A431A609023C0
:103F7000DB051A689023DB0504210A431A609023AD
:103F8000DB051A689023DB05802149000A431A608B
:103F90009023DB055A689023DB0501218A435A6090
:103FA0009023DB055A689023DB0502218A435A607F
:103FB0009023DB055A689023DB0510218A435A6061
:103FC0009023DB059A689023DB0503210A439A605E
:103FD0009023DB059A689023DB050C210A439A6045
:103FE0009023DB059A689023DB05C02189000A43F2
:103FF0009A609023DB05DA689023DB0503218A436E
:10400000DA609023DB05DA689023DB050C218A4314
:10401000DA609023DB05DA689023DB0503490A4068
:10402000DA60C046BD4680BD00100240FFFCFFFFC5
:1040300080B500AF9023DB055A699023DB05012191
:104040000A435A61C046BD4680BD80B500AF90238B
:10405000DB055A699023DB0501218A435A61C0467A
:10406000BD4680BD80B500AF9023DB055A69902323
:10407000DB0502210A435A61C046BD4680BD80B5BA
:1040800000AF9023DB055A699023DB0502218A43A8
:104090005A61C046BD4680BD80B500AF9023DB05A8
:1040A0005A699023DB0510210A435A61C046BD4678
:1040B00080BD80B500AF9023DB055A699023DB05F6
:1040C00010218A435A61C046BD4680BD80B500AF0D
:1040D000224B5A69214B802109030A435A61204B24
:1040E0001A681F4B01210A431A601D4B1A681C4BAA
:1040F00004210A431A601A4B5A68194B01218A435A
:104100005A60174B5A68164B02218A435A60144B67
:104110009A68134B03210A439A60114B9A68104B1B
:104120000C210A439A600E4BDA680D4B03218A4337
:10413000DA600B4BDA680A4B0C218A43DA60084BD1
:104140005A69074B01218A435A61054B5A69044B4E
:1041500002218A435A61C046BD4680BD001002401C
:104160000008004880B500AF074B5A69064B012193
:104170008A435A61044B5A69034B02210A435A612C
:10418000C046BD4680BDC0460008004880B500AFAF
:10419000074B5A69064B01210A435A61044B5A697D
:1041A000034B02218A435A61C046BD4680BDC046CA
:1041B0000008004880B500AF074B5A69064B012143
:1041C0008A435A61044B5A69034B02218A435A615C
:1041D000C046BD4680BDC0460008004803008218A6
:1041E000934200D1704719700133F9E770B500268A
:1041F0000C4C0D4D641BA410A64209D1002600F002
:1042000019F80A4C0A4D641BA410A64205D170BDD2
:10421000B300EB5898470136EEE7B300EB589847E8
:104220000136F2E7BC420008BC420008C042000868
:10423000BC420008F8B5C046F8BC08BC9E467047B2
:0C424000F8B5C046F8BC08BC9E467047AC
:10424C003803000826030008040300082E030008A6
:10425C0004030008FE050008040300082E030008F0
:10426C002603000826030008FE0500082E0300089C
:10427C00F0020008F0020008F002000876060008C0
:10428C0000000000000000000102030406070809FA
:10429C0002030405060708090A0B0C0D0E0F10107B
:1042AC000102030405060708090A0B0C0D0E0F107A
:0442BC00E90000080D
:0442C000C100000831
:0C42C40000127A0004000000010000005D
:0400000508001FF9D7
:00000001FF
